{
  "_format": "hh-sol-artifact-1",
  "contractName": "BasicMarketplace",
  "sourceName": "contracts/BasicMarketplace.sol",
  "abi": [
    {
      "inputs": [],
      "stateMutability": "nonpayable",
      "type": "constructor"
    },
    {
      "anonymous": false,
      "inputs": [
        {
          "indexed": true,
          "internalType": "uint256",
          "name": "_productId",
          "type": "uint256"
        }
      ],
      "name": "savingsEvent",
      "type": "event"
    },
    {
      "inputs": [
        {
          "internalType": "string",
          "name": "itemName",
          "type": "string"
        },
        {
          "internalType": "uint256",
          "name": "askingPrice",
          "type": "uint256"
        }
      ],
      "name": "addProduct",
      "outputs": [],
      "stateMutability": "nonpayable",
      "type": "function"
    },
    {
      "inputs": [
        {
          "internalType": "uint256",
          "name": "productId",
          "type": "uint256"
        }
      ],
      "name": "getProduct",
      "outputs": [
        {
          "components": [
            {
              "internalType": "uint256",
              "name": "id",
              "type": "uint256"
            },
            {
              "internalType": "string",
              "name": "itemName",
              "type": "string"
            },
            {
              "internalType": "address",
              "name": "creator",
              "type": "address"
            },
            {
              "internalType": "address",
              "name": "owner",
              "type": "address"
            },
            {
              "internalType": "uint256",
              "name": "askingPrice",
              "type": "uint256"
            },
            {
              "internalType": "bool",
              "name": "isSold",
              "type": "bool"
            }
          ],
          "internalType": "struct BasicMarketplace.Product",
          "name": "",
          "type": "tuple"
        }
      ],
      "stateMutability": "view",
      "type": "function"
    },
    {
      "inputs": [],
      "name": "getProducts",
      "outputs": [
        {
          "components": [
            {
              "internalType": "uint256",
              "name": "id",
              "type": "uint256"
            },
            {
              "internalType": "string",
              "name": "itemName",
              "type": "string"
            },
            {
              "internalType": "address",
              "name": "creator",
              "type": "address"
            },
            {
              "internalType": "address",
              "name": "owner",
              "type": "address"
            },
            {
              "internalType": "uint256",
              "name": "askingPrice",
              "type": "uint256"
            },
            {
              "internalType": "bool",
              "name": "isSold",
              "type": "bool"
            }
          ],
          "internalType": "struct BasicMarketplace.Product[]",
          "name": "",
          "type": "tuple[]"
        }
      ],
      "stateMutability": "view",
      "type": "function"
    },
    {
      "inputs": [],
      "name": "numProduct",
      "outputs": [
        {
          "internalType": "uint256",
          "name": "",
          "type": "uint256"
        }
      ],
      "stateMutability": "view",
      "type": "function"
    },
    {
      "inputs": [
        {
          "internalType": "uint256",
          "name": "",
          "type": "uint256"
        }
      ],
      "name": "products",
      "outputs": [
        {
          "internalType": "uint256",
          "name": "id",
          "type": "uint256"
        },
        {
          "internalType": "string",
          "name": "itemName",
          "type": "string"
        },
        {
          "internalType": "address",
          "name": "creator",
          "type": "address"
        },
        {
          "internalType": "address",
          "name": "owner",
          "type": "address"
        },
        {
          "internalType": "uint256",
          "name": "askingPrice",
          "type": "uint256"
        },
        {
          "internalType": "bool",
          "name": "isSold",
          "type": "bool"
        }
      ],
      "stateMutability": "view",
      "type": "function"
    },
    {
      "inputs": [
        {
          "internalType": "uint256",
          "name": "productId",
          "type": "uint256"
        }
      ],
      "name": "sellProduct",
      "outputs": [],
      "stateMutability": "nonpayable",
      "type": "function"
    }
  ],
  "bytecode": "0x60806040523480156200001157600080fd5b506000600181905550620000626040518060400160405280600981526020017f50726f647563742031000000000000000000000000000000000000000000000081525060646200006860201b60201c565b6200077b565b600080600060015481526020019081526020016000209050338160020160006101000a81548173ffffffffffffffffffffffffffffffffffffffff021916908373ffffffffffffffffffffffffffffffffffffffff160217905550338160030160006101000a81548173ffffffffffffffffffffffffffffffffffffffff021916908373ffffffffffffffffffffffffffffffffffffffff1602179055508181600401819055508281600101908162000122919062000618565b5060008160050160006101000a81548160ff0219169083151502179055506040518060c001604052806001548152602001826001018054620001649062000407565b80601f0160208091040260200160405190810160405280929190818152602001828054620001929062000407565b8015620001e35780601f10620001b757610100808354040283529160200191620001e3565b820191906000526020600020905b815481529060010190602001808311620001c557829003601f168201915b505050505081526020018260020160009054906101000a900473ffffffffffffffffffffffffffffffffffffffff1673ffffffffffffffffffffffffffffffffffffffff1681526020018260030160009054906101000a900473ffffffffffffffffffffffffffffffffffffffff1673ffffffffffffffffffffffffffffffffffffffff168152602001826004015481526020018260050160009054906101000a900460ff1615158152506000806001548152602001908152602001600020600082015181600001556020820151816001019081620002c3919062000618565b5060408201518160020160006101000a81548173ffffffffffffffffffffffffffffffffffffffff021916908373ffffffffffffffffffffffffffffffffffffffff16021790555060608201518160030160006101000a81548173ffffffffffffffffffffffffffffffffffffffff021916908373ffffffffffffffffffffffffffffffffffffffff1602179055506080820151816004015560a08201518160050160006101000a81548160ff0219169083151502179055509050506001600081548092919062000394906200072e565b9190505550505050565b600081519050919050565b7f4e487b7100000000000000000000000000000000000000000000000000000000600052604160045260246000fd5b7f4e487b7100000000000000000000000000000000000000000000000000000000600052602260045260246000fd5b600060028204905060018216806200042057607f821691505b602082108103620004365762000435620003d8565b5b50919050565b60008190508160005260206000209050919050565b60006020601f8301049050919050565b600082821b905092915050565b600060088302620004a07fffffffffffffffffffffffffffffffffffffffffffffffffffffffffffffffff8262000461565b620004ac868362000461565b95508019841693508086168417925050509392505050565b6000819050919050565b6000819050919050565b6000620004f9620004f3620004ed84620004c4565b620004ce565b620004c4565b9050919050565b6000819050919050565b6200051583620004d8565b6200052d620005248262000500565b8484546200046e565b825550505050565b600090565b6200054462000535565b620005518184846200050a565b505050565b5b8181101562000579576200056d6000826200053a565b60018101905062000557565b5050565b601f821115620005c85762000592816200043c565b6200059d8462000451565b81016020851015620005ad578190505b620005c5620005bc8562000451565b83018262000556565b50505b505050565b600082821c905092915050565b6000620005ed60001984600802620005cd565b1980831691505092915050565b6000620006088383620005da565b9150826002028217905092915050565b62000623826200039e565b67ffffffffffffffff8111156200063f576200063e620003a9565b5b6200064b825462000407565b620006588282856200057d565b600060209050601f8311600181146200069057600084156200067b578287015190505b620006878582620005fa565b865550620006f7565b601f198416620006a0866200043c565b60005b82811015620006ca57848901518255600182019150602085019450602081019050620006a3565b86831015620006ea5784890151620006e6601f891682620005da565b8355505b6001600288020188555050505b505050505050565b7f4e487b7100000000000000000000000000000000000000000000000000000000600052601160045260246000fd5b60006200073b82620004c4565b91507fffffffffffffffffffffffffffffffffffffffffffffffffffffffffffffffff820362000770576200076f620006ff565b5b600182019050919050565b6113f7806200078b6000396000f3fe608060405234801561001057600080fd5b50600436106100625760003560e01c8063492deb15146100675780637acc0b2014610083578063b15247d9146100b8578063b9db15b4146100d4578063c29b2f2014610104578063ddd2e8a914610122575b600080fd5b610081600480360381019061007c9190610a72565b610140565b005b61009d60048036038101906100989190610a72565b6101ba565b6040516100af96959493929190610b9a565b60405180910390f35b6100d260048036038101906100cd9190610d37565b6102cb565b005b6100ee60048036038101906100e99190610a72565b6105f3565b6040516100fb9190610e93565b60405180910390f35b61010c61078c565b6040516101199190611000565b60405180910390f35b61012a6109be565b6040516101379190611022565b60405180910390f35b60008060008381526020019081526020016000209050338160030160006101000a81548173ffffffffffffffffffffffffffffffffffffffff021916908373ffffffffffffffffffffffffffffffffffffffff16021790555060018160050160006101000a81548160ff0219169083151502179055505050565b60006020528060005260406000206000915090508060000154908060010180546101e39061106c565b80601f016020809104026020016040519081016040528092919081815260200182805461020f9061106c565b801561025c5780601f106102315761010080835404028352916020019161025c565b820191906000526020600020905b81548152906001019060200180831161023f57829003601f168201915b5050505050908060020160009054906101000a900473ffffffffffffffffffffffffffffffffffffffff16908060030160009054906101000a900473ffffffffffffffffffffffffffffffffffffffff16908060040154908060050160009054906101000a900460ff16905086565b600080600060015481526020019081526020016000209050338160020160006101000a81548173ffffffffffffffffffffffffffffffffffffffff021916908373ffffffffffffffffffffffffffffffffffffffff160217905550338160030160006101000a81548173ffffffffffffffffffffffffffffffffffffffff021916908373ffffffffffffffffffffffffffffffffffffffff160217905550818160040181905550828160010190816103839190611249565b5060008160050160006101000a81548160ff0219169083151502179055506040518060c0016040528060015481526020018260010180546103c39061106c565b80601f01602080910402602001604051908101604052809291908181526020018280546103ef9061106c565b801561043c5780601f106104115761010080835404028352916020019161043c565b820191906000526020600020905b81548152906001019060200180831161041f57829003601f168201915b505050505081526020018260020160009054906101000a900473ffffffffffffffffffffffffffffffffffffffff1673ffffffffffffffffffffffffffffffffffffffff1681526020018260030160009054906101000a900473ffffffffffffffffffffffffffffffffffffffff1673ffffffffffffffffffffffffffffffffffffffff168152602001826004015481526020018260050160009054906101000a900460ff161515815250600080600154815260200190815260200160002060008201518160000155602082015181600101908161051a9190611249565b5060408201518160020160006101000a81548173ffffffffffffffffffffffffffffffffffffffff021916908373ffffffffffffffffffffffffffffffffffffffff16021790555060608201518160030160006101000a81548173ffffffffffffffffffffffffffffffffffffffff021916908373ffffffffffffffffffffffffffffffffffffffff1602179055506080820151816004015560a08201518160050160006101000a81548160ff021916908315150217905550905050600160008154809291906105e99061134a565b9190505550505050565b6105fb6109c4565b6000808381526020019081526020016000206040518060c0016040529081600082015481526020016001820180546106329061106c565b80601f016020809104026020016040519081016040528092919081815260200182805461065e9061106c565b80156106ab5780601f10610680576101008083540402835291602001916106ab565b820191906000526020600020905b81548152906001019060200180831161068e57829003601f168201915b505050505081526020016002820160009054906101000a900473ffffffffffffffffffffffffffffffffffffffff1673ffffffffffffffffffffffffffffffffffffffff1673ffffffffffffffffffffffffffffffffffffffff1681526020016003820160009054906101000a900473ffffffffffffffffffffffffffffffffffffffff1673ffffffffffffffffffffffffffffffffffffffff1673ffffffffffffffffffffffffffffffffffffffff168152602001600482015481526020016005820160009054906101000a900460ff1615151515815250509050919050565b6060600060015467ffffffffffffffff8111156107ac576107ab610c0c565b5b6040519080825280602002602001820160405280156107e557816020015b6107d26109c4565b8152602001906001900390816107ca5790505b50905060005b6001548110156109b65760008060008381526020019081526020016000209050806040518060c0016040529081600082015481526020016001820180546108319061106c565b80601f016020809104026020016040519081016040528092919081815260200182805461085d9061106c565b80156108aa5780601f1061087f576101008083540402835291602001916108aa565b820191906000526020600020905b81548152906001019060200180831161088d57829003601f168201915b505050505081526020016002820160009054906101000a900473ffffffffffffffffffffffffffffffffffffffff1673ffffffffffffffffffffffffffffffffffffffff1673ffffffffffffffffffffffffffffffffffffffff1681526020016003820160009054906101000a900473ffffffffffffffffffffffffffffffffffffffff1673ffffffffffffffffffffffffffffffffffffffff1673ffffffffffffffffffffffffffffffffffffffff168152602001600482015481526020016005820160009054906101000a900460ff16151515158152505083838151811061099757610996611392565b5b60200260200101819052505080806109ae9061134a565b9150506107eb565b508091505090565b60015481565b6040518060c001604052806000815260200160608152602001600073ffffffffffffffffffffffffffffffffffffffff168152602001600073ffffffffffffffffffffffffffffffffffffffff168152602001600081526020016000151581525090565b6000604051905090565b600080fd5b600080fd5b6000819050919050565b610a4f81610a3c565b8114610a5a57600080fd5b50565b600081359050610a6c81610a46565b92915050565b600060208284031215610a8857610a87610a32565b5b6000610a9684828501610a5d565b91505092915050565b610aa881610a3c565b82525050565b600081519050919050565b600082825260208201905092915050565b60005b83811015610ae8578082015181840152602081019050610acd565b60008484015250505050565b6000601f19601f8301169050919050565b6000610b1082610aae565b610b1a8185610ab9565b9350610b2a818560208601610aca565b610b3381610af4565b840191505092915050565b600073ffffffffffffffffffffffffffffffffffffffff82169050919050565b6000610b6982610b3e565b9050919050565b610b7981610b5e565b82525050565b60008115159050919050565b610b9481610b7f565b82525050565b600060c082019050610baf6000830189610a9f565b8181036020830152610bc18188610b05565b9050610bd06040830187610b70565b610bdd6060830186610b70565b610bea6080830185610a9f565b610bf760a0830184610b8b565b979650505050505050565b600080fd5b600080fd5b7f4e487b7100000000000000000000000000000000000000000000000000000000600052604160045260246000fd5b610c4482610af4565b810181811067ffffffffffffffff82111715610c6357610c62610c0c565b5b80604052505050565b6000610c76610a28565b9050610c828282610c3b565b919050565b600067ffffffffffffffff821115610ca257610ca1610c0c565b5b610cab82610af4565b9050602081019050919050565b82818337600083830152505050565b6000610cda610cd584610c87565b610c6c565b905082815260208101848484011115610cf657610cf5610c07565b5b610d01848285610cb8565b509392505050565b600082601f830112610d1e57610d1d610c02565b5b8135610d2e848260208601610cc7565b91505092915050565b60008060408385031215610d4e57610d4d610a32565b5b600083013567ffffffffffffffff811115610d6c57610d6b610a37565b5b610d7885828601610d09565b9250506020610d8985828601610a5d565b9150509250929050565b610d9c81610a3c565b82525050565b600082825260208201905092915050565b6000610dbe82610aae565b610dc88185610da2565b9350610dd8818560208601610aca565b610de181610af4565b840191505092915050565b610df581610b5e565b82525050565b610e0481610b7f565b82525050565b600060c083016000830151610e226000860182610d93565b5060208301518482036020860152610e3a8282610db3565b9150506040830151610e4f6040860182610dec565b506060830151610e626060860182610dec565b506080830151610e756080860182610d93565b5060a0830151610e8860a0860182610dfb565b508091505092915050565b60006020820190508181036000830152610ead8184610e0a565b905092915050565b600081519050919050565b600082825260208201905092915050565b6000819050602082019050919050565b600060c083016000830151610ef96000860182610d93565b5060208301518482036020860152610f118282610db3565b9150506040830151610f266040860182610dec565b506060830151610f396060860182610dec565b506080830151610f4c6080860182610d93565b5060a0830151610f5f60a0860182610dfb565b508091505092915050565b6000610f768383610ee1565b905092915050565b6000602082019050919050565b6000610f9682610eb5565b610fa08185610ec0565b935083602082028501610fb285610ed1565b8060005b85811015610fee5784840389528151610fcf8582610f6a565b9450610fda83610f7e565b925060208a01995050600181019050610fb6565b50829750879550505050505092915050565b6000602082019050818103600083015261101a8184610f8b565b905092915050565b60006020820190506110376000830184610a9f565b92915050565b7f4e487b7100000000000000000000000000000000000000000000000000000000600052602260045260246000fd5b6000600282049050600182168061108457607f821691505b6020821081036110975761109661103d565b5b50919050565b60008190508160005260206000209050919050565b60006020601f8301049050919050565b600082821b905092915050565b6000600883026110ff7fffffffffffffffffffffffffffffffffffffffffffffffffffffffffffffffff826110c2565b61110986836110c2565b95508019841693508086168417925050509392505050565b6000819050919050565b600061114661114161113c84610a3c565b611121565b610a3c565b9050919050565b6000819050919050565b6111608361112b565b61117461116c8261114d565b8484546110cf565b825550505050565b600090565b61118961117c565b611194818484611157565b505050565b5b818110156111b8576111ad600082611181565b60018101905061119a565b5050565b601f8211156111fd576111ce8161109d565b6111d7846110b2565b810160208510156111e6578190505b6111fa6111f2856110b2565b830182611199565b50505b505050565b600082821c905092915050565b600061122060001984600802611202565b1980831691505092915050565b6000611239838361120f565b9150826002028217905092915050565b61125282610aae565b67ffffffffffffffff81111561126b5761126a610c0c565b5b611275825461106c565b6112808282856111bc565b600060209050601f8311600181146112b357600084156112a1578287015190505b6112ab858261122d565b865550611313565b601f1984166112c18661109d565b60005b828110156112e9578489015182556001820191506020850194506020810190506112c4565b868310156113065784890151611302601f89168261120f565b8355505b6001600288020188555050505b505050505050565b7f4e487b7100000000000000000000000000000000000000000000000000000000600052601160045260246000fd5b600061135582610a3c565b91507fffffffffffffffffffffffffffffffffffffffffffffffffffffffffffffffff82036113875761138661131b565b5b600182019050919050565b7f4e487b7100000000000000000000000000000000000000000000000000000000600052603260045260246000fdfea2646970667358221220f3f72b6073a114ea8c88f7465e70ad824978ba20316b91328cf472cec991012e64736f6c63430008110033",
  "linkReferences": {},
  "deployedLinkReferences": {}
}